:020000040800F2
:1000000050080020290200089F190008AD180008B8
:100010009D1900081F040008451D0008000000008D
:100020000000000000000000000000009D1A000811
:10003000B5040008000000003B1A0008D91A0008A7
:10004000430200084302000843020008430200087C
:10005000430200084302000843020008430200086C
:10006000430200084302000843020008430200085C
:10007000430200084302000843020008430200084C
:10008000430200084302000843020008430200083C
:10009000210400084302000843020008430200084C
:1000A000430200084302000843020008430200081C
:1000B000430200084302000843020008430200080C
:1000C00043020008430200084302000843020008FC
:1000D00043020008911C0008430200084302000884
:1000E00043020008430200084302000843020008DC
:1000F00043020008430200084302000843020008CC
:1001000043020008430200084302000843020008BB
:1001100043020008430200084302000843020008AB
:1001200043020008430200082D04000843020008AF
:10013000430200084302000843020008430200088B
:10014000430200084302000843020008430200087B
:10015000430200084302000843020008430200086B
:10016000430200084302000843020008430200085B
:100170004302000843020008430200080000000098
:10018000430200084302000800F002F800F03CF8C7
:100190000AA090E8000C82448344AAF10107DA45E2
:1001A00001D100F031F8AFF2090EBAE80F0013F0F8
:1001B000010F18BFFB1A43F001031847B81D0000D8
:1001C000D81D0000103A24BF78C878C1FAD8520769
:1001D00024BF30C830C144BF04680C6070470000C1
:1001E0000023002400250026103A28BF78C1FBD840
:1001F000520728BF30C148BF0B6070471FB501F0E0
:10020000A3FE1FBD10B510BD00F0CFF81146FFF7DB
:10021000F5FF01F0C9FD00F0EDF803B4FFF7F2FFC0
:1002200003BC00F0F5F80000094880470948004782
:10023000FEE7FEE7FEE7FEE7FEE7FEE7FEE7FEE796
:10024000FEE7FEE704480549054A064B70470000F3
:10025000751B00088901000850020020500800208A
:10026000500400205004002053EA020C00F0698082
:100270002DE9F04B4FF00006002B1FBFB3FA83F5BA
:1002800003FA05F424FA05F65E4012BF1643B2FAEB
:1002900082F502FA05F4C5F120051EBF22FA05FC1D
:1002A00044EA0C04203556EA044C4FEA144418BFC3
:1002B000641C4FF000084FF00009904271EB030CF2
:1002C00039D3002919BFB1FA81F701FA07F6B0FA5C
:1002D00080F700FA07F6C7F120071EBF20FA07FCD7
:1002E00046EA0C062037B6FBF4FCA7EB0507103FE7
:1002F00007F01F0BCBF120060CFA0BFB2CFA06F6CD
:1003000044BFB3460026202FA4BF5E464FF0000B2B
:100310005BEA060C08BF4FF0010B19EB0B09ABFBB6
:10032000027C48EB0608C01B06FB02CC0BFB03CC8F
:1003300071EB0C01C1E70B46024641464846BDE859
:10034000F08B13B54FF000004FF00001AFF30080C9
:10035000BDE81C4070474FF0000200B513469446BC
:100360009646203922BFA0E80C50A0E80C50B1F10D
:100370002001BFF4F7AF090728BFA0E80C5048BF21
:100380000CC05DF804EB890028BF40F8042B08BFBF
:10039000704748BF20F8022B11F0804F18BF00F8BB
:1003A000012B7047704770477047754600F02CF876
:1003B000AE4605006946534620F00700854618B052
:1003C00020B5FFF73FFFBDE820404FF000064FF09B
:1003D00000074FF000084FF0000B21F00701AC467A
:1003E000ACE8C009ACE8C009ACE8C009ACE8C00999
:1003F0008D46704710B50446AFF300802046BDE837
:100400001040FFF70ABF000000487047EC010020D1
:1004100001491820ABBEFEE7260002007047FEE748
:10042000014800F0F4B900001C010020014800F070
:1004300015BC00008C01002001681823CAB2103AD4
:10044000B2FBF3F2054B6FF30901032A9B5CC36512
:1004500000D9091D8165084670470000521F000839
:1004600010B5014600208B698A6A4FF0C07453B101
:10047000B3F5005F15D072B1012A0CD0022A0AD060
:10048000032A09D104E01AB1012A06D0022A03D1B5
:10049000C96AC90100D5012010BDC96AA142FAD0BC
:1004A00010BD002AF7D0012AF2D0022AF3D0032A85
:1004B000F3D010BD704772B6FEE70000194900B5D1
:1004C00091ED010A1848B8EEC02A91ED000AF8EE45
:1004D000C01A91ED080AB8EEC01A91ED050AF8EEBF
:1004E000C00A91ED040AB8EEC00A01F0C7FC91ED14
:1004F000030A0D48B8EEC02A91ED020A3430F8EE36
:10050000C01A91ED070AB8EEC01A91ED090AF8EE8B
:10051000C00A91ED060A5DF804EBB8EEC00A01F0DE
:10052000ADBC0000000000205400002090F8202006
:10053000012A07D0022A05D0416A41F48021416294
:1005400001207047006842690A43426100207047F9
:10055000F0B590F820500468A468012D05D0022D54
:1005600003D0416A41F480214DE014F0406F01D185
:10057000E50045D5C4F301640125A5401D608D68E3
:100580004FF4C0739DB1CE6835434E6845EAC60549
:10059000066803EB0417F5514FF4C275076805EBC5
:1005A00004150E697E51097D012905D009E00E88E8
:1005B000CD6845EA4655EBE701684E5946F480762A
:1005C0004E511179D2F805504FF4C67641EA052113
:1005D000056806EB0416A9511178D2F801204FF4F2
:1005E000C47541EA0221026805EB04155151006807
:1005F00003EB0411425842F0010242500020F0BDCA
:10060000416A41F4001141620120F0BD10B590F83B
:100610002020012A07D0022A05D0416A41F4802116
:100620004162012010BD3B48D0F8002242F0010297
:10063000C0F80022D0F8002222F47C52C0F8002238
:10064000D0F800224B6A42EA0322C0F800220A7D59
:1006500002F01F0301229A40D0F81C329343C0F8E5
:100660001C32CB69B3B9D0F80C329343C0F80C32CA
:100670008C894B6864F31F434C6900EBC404C4F8D5
:1006800040320C890B6864F31F434C6900EBC404CF
:10069000C4F84432CB69012B16D1D0F80C32134385
:1006A000C0F80C320C884B6864F31F434C6900EBB4
:1006B000C404C4F840320C89CB6864F31F434C690E
:1006C00000EBC404C4F844328B69002BD0F8043228
:1006D0000ED01343C0F804320B69002BD0F814324B
:1006E00008D01343C0F81432096A012904D008E085
:1006F0009343EFE79343F5E7D0F81C121143C0F89A
:100700001C12D0F8001221F00101C0F800120020E4
:1007100010BD000000640040704770B590F82040A4
:10072000012C05D0022C03D0416A41F4802128E03D
:10073000046809B32469A40720D04FF4D87405686D
:1007400004EB01142D5915F00405956005682D5929
:100750001AD0ED08556005682C5904F00204D460E5
:100760004FF4DA74056804EB01142E5906F00F06F5
:10077000082E0CD308250DE0E468DCE7416A41F45B
:1007800000114162012070BD6D0D1560E3E72D5928
:1007900005F00F05156105682D59C5F3072595610D
:1007A00005682C59240C54614FF4DC72046802EB88
:1007B0000112A4581C700468A458240A5C700468D0
:1007C000A458240C9C700468A258120EDA704FF4DE
:1007D000DE72046802EB0112A4581C710468A4586C
:1007E000240A5C710468A458240C9C710468A25803
:1007F000120EDA71006829B1016941F0200101612E
:10080000002070BDC16841F02001C160F8E72DE90A
:10081000F05F0546006800244669D0F804908768B8
:10082000D0F80CB0D0F810A0D0F81880F10748D05C
:10083000F90714D001218160B80703D5284600F0DC
:1008400006FA0CE0780702D54FF4006407E0380799
:1008500002D54FF4805402E0284600F0F7F9F8057D
:1008600016D529684FF480708860B80503D52846EE
:1008700000F0EFF90CE0780502D544F4005407E0ED
:10088000380502D544F4804402E0284600F0E0F93F
:10089000F80316D529684FF480308860B80303D573
:1008A000284600F0D8F90CE0780302D544F400445F
:1008B00007E0380302D544F4803402E0284600F013
:1008C000C9F9300707D55FEACB6004D52968102045
:1008D00044F40074C86070074FF0080707D55FEA5A
:1008E0000B7004D52868C760284600F057F9B00798
:1008F00006D52868C068800702D0284600F050F965
:10090000700607D55FEACA6004D52968102044F450
:1009100080640861B00607D55FEA0A7004D52868CC
:100920000761284600F062F9F00606D528680069DC
:10093000800702D0284600F05AF9B00308D55FEAD4
:10094000C96005D5296810204860284600F050F994
:10095000F00307D55FEA097004D528684760284688
:1009600000F07AF9300446D55FEA497040D5F005C9
:1009700004D55FEAC87001D044F00104B00504D585
:100980005FEA887001D544F00204700504D55FEA7F
:10099000487001D544F00404300529D518F0700FD3
:1009A00026D008F07000402815D006DC102809D0A9
:1009B00020280AD0302816D10AE050280ED060280E
:1009C00011D10EE044F008040DE044F010040AE0F8
:1009D00044F0200407E044F0400404E044F08004C4
:1009E00001E044F480742868816921F0700181611C
:1009F000296804204860002C05D0686A204368629A
:100A00002846FFF789FEBDE8F09F70B5040003D0CB
:100A100094F8200010B104E0012070BD204600F0E1
:100A200081F82068016841F00101016000F05AFB83
:100A30000546052604E000F055FB401B0A2811D8A6
:100A400020684068C007F6D02068016821F00201E4
:100A5000016000F047FB05460BE000F043FB401B44
:100A60000A2806D9606A40F40030606284F8206089
:100A7000D2E7206840688007EFD4207E01282068F4
:100A800001683DD021F080010160607E012820686E
:100A9000016838D021F040010160A07E0128206863
:100AA000016833D021F020010160E07E0128206838
:100AB00001682ED041F010010160207F01282068DC
:100AC000016829D021F008010160607F01282068B9
:100AD000016824D021F004010160D4E90201084337
:100AE000D4E90412114308436168491E0843216890
:100AF000C86100206062012084F82000002070BDE1
:100B000041F08001C0E741F04001C5E741F020011C
:100B1000CAE721F01001CFE741F00801D4E741F026
:100B20000401D9E710B586B0044614216846FFF7E2
:100B300012FC17492068884227D116480021026814
:100B400042F000720260006800F0007005901148E9
:100B50001038026842F0080202600068022200F0C9
:100B6000080005900320CDE90210CDE9000209201C
:100B700004906946084800F0BDF90022114614208F
:100B800000F01EFB142000F00DFB06B010BD0000AD
:100B90000064004040380240000C024070470000F2
:100BA00000B5104989B0884219D107AB6A460021C7
:100BB000FFF7B3FD0098A0F5007106390FD1BDF81D
:100BC0001C0041BA08488180BDF81E1049BAC18096
:100BD000BDF8201049BA01819DF82210817209B038
:100BE00000BD00001C010020480000207047704735
:100BF0007047000070B5044690F82000012804D02A
:100C0000606A40F40020606218E0022084F820004E
:100C10002068016821F00101016000F063FA0546D7
:100C20000EE000BF00F05EFA401B0A2808D9606A97
:100C300040F400306062052084F82000012070BD7F
:100C400020684068C007EDD1606270BD7047704792
:100C50007047704770477047704700002DE9F843B0
:100C600004464FF00009CDF8009063484FF4165148
:100C7000A56D0068B0FBF1F72E6894F85C100820B1
:100C800000FA01F131420FD021680A6852070BD5F2
:100C90000A6822F004020A6094F85C108840A86098
:100CA000606D40F00100606594F85C104FF0010841
:100CB00008FA01F0304208D021684969090604D5D4
:100CC000A860606D40F00200606594F85C1004203C
:100CD0008840304208D021680968890704D5A86097
:100CE000606D40F00400606594F85C10102088404E
:100CF000304218D021680968090714D5A860206817
:100D00000168490304D50068000308D5A16C07E019
:100D10000168C90503D4016821F008010160216C54
:100D200009B12046884794F85C1020208840304262
:100D300031D021680968C9062DD5A86094F835001E
:100D400005282068016806D0490347D500680003DC
:100D50001DD4616C1CE021F016010160206841691E
:100D600021F080014161206C08B9A06C20B120689D
:100D7000016821F00801016094F85C103F20884070
:100D8000A86084F8358084F83490216D1FE0E16B11
:100D900009B120468847606D00282BD0606DC007E0
:100DA00014D0052084F835002068016821F0010185
:100DB00001600098401C0090B84203D82068006889
:100DC000C007F6D184F8358084F83490E16C0029AE
:100DD00010D001B02046BDE8F04308470168C905BE
:100DE000D5D4016821F01001016084F8358084F8C1
:100DF0003490CCE7BDE8F883440000202DE9F041B1
:100E0000044600F06FF906465CB1022084F8350014
:100E1000002584F834502068016821F00101016048
:100E20000DE00120BDE8F08100F05CF9801B052891
:100E300005D920206065032084F83500F2E720689A
:100E40000068C007F0D12268116820480140D4E949
:100E500001031843D4E90336334318436369184345
:100E6000A3691843E3691843236A18430843616A76
:100E7000042903D1D4E90B131943084310602068F7
:100E80004069666A20F0070130460E4301270428B6
:100E90000CD1A06A0643E06A40B12046FFF7E0FAB1
:100EA00020B14020606584F83570BAE7206846615B
:100EB0002046FFF7C1FA94F85C203F219140816001
:100EC000656584F835700020ACE700003F8010F0C5
:100ED00070B5044600F006F90546601C02D00448CF
:100EE0000078044400F0FEF8401BA042FAD370BD25
:100EF000380000202DE9F84FDFF8BCA100220125C1
:100F000003264FF00F090AF1040BAAF1040E00BFEB
:100F10000B6805FA02F42340A34270D10F7907F061
:100F20000307012F01D0022F16D187684FEA42082C
:100F300006FA08FC27EA0C07D1F80CC00CFA08FCEA
:100F40004CEA070CC0F808C04768A7430C79C4F303
:100F5000001494403C4344600C79E443A4070AD055
:100F6000C4684FEA420C06FA0CF7BC438F6807FAD4
:100F70000CF72743C7600C7904F00304022C12D14C
:100F8000D40800EB840CDCF820405707FF0E09FA68
:100F900007F824EA0804D1F8108008FA07F848EAAC
:100FA0000408CCF8208004684FEA420C06FA0CF7DB
:100FB000BC430F7907F0030707FA0CF727430760D4
:100FC0004C6814F4403F70D03C4C276847F480478D
:100FD0002760246822F0030704F480440094384C0E
:100FE00007EB040CDCF8084897074FEA177809FA72
:100FF00008F7BC43334FB84202D1002724E054E045
:10100000314FB84201D101271EE0304FB84201D123
:10101000022719E02E4FB84201D1032714E02D4FCB
:10102000B84201D104270FE02B4FB84201D1052768
:101030000AE02A4FB84201D1062705E0284FB842FE
:1010400001D1072700E0082707FA08F72743CCF863
:101050000878DAF800405746D1F804C09C435FEAAC
:10106000CC2C00D51C433C60DBF800405F46D1F837
:1010700004C09C435FEA8C2C00D51C433C60DEF826
:1010800000407746D1F804C09C435FEA8C3C00D511
:101090001C433C60084F083F3C68D1F804C09C43A7
:1010A0005FEACC3C00D51C433C60521C102AFFF484
:1010B0002FAFBDE8F88F0000083C014044380240E3
:1010C00000300140000002400004024000080240DD
:1010D000000C0240001002400014024000180240C0
:1010E000001C024001488068704700003800002062
:1010F00002488168027811448160704738000020FE
:101100000B4810B5016841F400710160016841F4B9
:1011100080610160016841F480710160032000F08A
:101120006FF80F2000F006F800F024F8002010BD42
:10113000003C024070B50D4D04464FF47A7128789A
:10114000B1FBF0F00A490968B1FBF0F000F00CFBCC
:1011500048B9102C07D200222146501E00F030F86A
:1011600000206C6070BD012070BD000038000020C0
:10117000440000200A4808B5016841F4804101603C
:10118000006800F4804000900548001F016841F0AD
:1011900080510160006800F08050009008BD0000A0
:1011A00044380240002809DB00F01F020121914071
:1011B0004009800000F1E020C0F8001170470000F5
:1011C000F0B40E4B1B680C46C3F30223C3F10705B2
:1011D000042D00D90425191D072901D2002300E0A0
:1011E000DB1E012606FA05F1491E214099409E406A
:1011F000761E16403143F0BC00F0A5BD0CED00E0BA
:10120000064900F0070208684FF6FF03184040EA5D
:101210000220034A10430860704700000CED00E014
:101220000000FA052DE9F0470E46050065D0DFF80D
:101230001481D8F80000F7B200F00700B04207D2DE
:1012400088F80070D8F8000000F00700B04254D1D0
:1012500028683D4C810712D5400703D5206840F42B
:10126000E05020602878000703D5206840F46040F3
:1012700020602068A96820F0F000084320602878EA
:10128000C0072DD0304968680839012812D00228DB
:1012900013D0032811D00968890700292DDA2168A5
:1012A00021F0030101432160FFF71CFF814641F259
:1012B000883A0EE009688903EFE709688901ECE7DD
:1012C000FFF710FFA0EB0901514502D90320BDE84B
:1012D000F0872068696800F00C00B0EB810FEFD157
:1012E000D8F80010404601F00701B14207D9077055
:1012F000006800F00700B04201D00120E7E728783D
:10130000400705D52068E96820F4E05008432060D4
:101310002878000706D52068296920F4604040EA53
:10132000C100206000F038F82168084AC1F30311B9
:10133000515CC8400649086006480068FFF7FAFE9D
:101340000020C4E7003C0240083802405A1F000851
:10135000440000203C00002004480549006809685A
:10136000044AC1F38221515CC84070474400002008
:10137000083802406A1F00080448054900680968E7
:10138000044AC1F34231515CC84070474400002018
:10139000083802406A1F0008154810B5006810F0B0
:1013A0000C02144813D01449042A0FD0082A0ED175
:1013B0000F4C241F2268236802F03F025B0207D50E
:1013C0002068C0F38810A0FB010106E0084610BDAC
:1013D0002168C1F38811A1FB00010023FEF744FF3F
:1013E0002168C1F30141491C4900B0FBF1F010BD77
:1013F000083802400024F40040787D012DE9F84FC0
:1014000004006ED02078DFF84C93C007A9F10405E2
:101410004AD009F104000168C1F38101012908D013
:101420000068C0F3810002280AD1D9F80000400208
:1014300006D52868800337D560680028E1D033E0FE
:101440006068B0F5803F10D0B0F5A02F286810D0AC
:1014500020F480302860286820F4802028606068AC
:10146000A8B1FFF73FFE06460DE0286840F4803043
:10147000F4E740F480202860F7E700BFFFF732FE72
:10148000801B642873D828688003F7D50CE0FFF729
:1014900029FE064605E000BFFFF724FE801B6428F6
:1014A000F0D828688003F7D42078DFF8AC82800772
:1014B0004FF0000A3ED5A748001D016811F00C0F3F
:1014C00008D00068C0F3810002280BD1D9F80000D1
:1014D000400207D42868800716D5E068012800D1AB
:1014E00012E033E1E068B8B10120C8F80000FFF76E
:1014F000F9FD064605E000BFFFF7F4FD801B02285A
:10150000C0D828688007F7D52868216920F0F8003E
:1015100040EAC10028600DE0C8F800A0FFF7E2FD36
:10152000064604E0FFF7DEFD801B02281FD828686E
:101530008007F7D42078000722D5864F8748616955
:10154000703771B101210160FFF7CCFD064604E060
:10155000FFF7C8FD801B022809D838688007F7D537
:101560000EE0C0F800A0FFF7BDFD064605E082E0F2
:10157000FFF7B8FD801B02287DD838688007F7D4B4
:101580002078400768D5DFF8CCB100270BF13C0B81
:10159000DBF80000C0000BD4DBF8001041F08051F4
:1015A000CBF80010DBF80000012700F0805000901D
:1015B0006B4E3068C00510D4306840F480703060E5
:1015C000FFF790FD009005E0FFF78CFD0099401AB1
:1015D000022850D83068C005F6D55E4EA0686C363B
:1015E00001280FD00528306810D020F001003060AD
:1015F000306820F004003060A068B8B1FFF772FDD9
:1016000000900FE0306840F00100F4E740F0040083
:101610003060F7E7FFF766FD0099411A41F2883024
:10162000814266D830688007F4D50EE0FFF75AFD96
:10163000009007E0FFF756FD0099411A41F288300B
:10164000814256D830688007F4D42FB1DBF80010FF
:1016500021F08051CBF80010A069C8B33D49091DA5
:101660000968C1F3810102294AD00228504607D0F7
:10167000C8F8600000E03CE0FFF734FD04463BE0C2
:101680004746C8F86000FFF72DFD064605E000BF9D
:10169000FFF728FD801B02282BD828688001F7D48B
:1016A000D4E907010843A16A2E4A490802EB014127
:1016B000626A41EA8211084394F82C1040EA016101
:1016C000C9F8001001203866FFF70CFD044606E05B
:1016D0003EE000BFFFF706FD001B022809D828687E
:1016E0008001F7D534E000BFFFF7FCFC001B0228A7
:1016F00002D90320BDE8F88F28688001F4D427E0E0
:101700000128F7D0D9F80000E26900F48001914285
:101710001CD1226A00F03F01914217D147F6C071F7
:10172000626A0140B1EB821F10D1A26A4FF0FF3311
:1017300000F4403103EB5202B1EB024F06D194F8B2
:101740002C1000F07060B0EB016F01D00120D1E7E8
:101750000020CFE70438024000004742800E474295
:10176000007000400000FFFF10B5401EB0F1807F08
:1017700001D3012010BD4FF0E02460610F216017FC
:1017800000F0E1FA0020A06107202061002010BDD8
:1017900070B5040004D094F84100002510B106E0B3
:1017A000012070BD84F84050204600F023F824202A
:1017B00084F841002068C16821F40051C1602046CE
:1017C00000F0E0F92068016921F49041016120688E
:1017D000416921F02A0141612068C16841F400514A
:1017E000C1606564202084F8410084F8420065638C
:1017F000002070BD70B586B0064614216846FEF71D
:10180000AAFD25493068884243D124480025016853
:1018100041F010010160006800F0100005901F48C1
:101820001438016841F0010101600068694600F068
:10183000010005904FF4C06000900220CDE9010541
:1018400003200390072004901548FFF753FB164C24
:10185000144820604FF00060C4E901054014C4E959
:10186000035080106561C4E906504FF44030C4E96C
:1018700008052046FFF7C2FA08B1FEF71CFEF46324
:10188000002211462520A663FFF79AFC2520FFF7CA
:1018900089FC06B070BD00000010014044380240D1
:1018A00000000240406402408C010020FEE700007E
:1018B0000F4810B50D4901600721416000214FF428
:1018C00080328160C0E903125201426101764176A3
:1018D0008176C17601774177FFF797F8002803D02A
:1018E000BDE81040FEF7E7BD10BD000000640040F9
:1018F0001C010020094808B5016841F4800101601D
:101900000068002200F48000009011463A20FFF7A2
:1019100057FCBDE808403A20FFF744BC303802408D
:101920000D4808B5016841F080010160016801F0CF
:1019300080010091016841F001010160016801F03E
:1019400001010091016841F008010160006800F0A8
:101950000800009008BD0000303802400D4810B566
:101960000B4901600C49416000214FF480628160A5
:10197000C0E903120C22C0E90521C161FFF708FF8D
:10198000002803D0BDE81040FEF795BD10BD000053
:101990000010014044010020A0860100FEE7FEE7A0
:1019A00080ED050AC0ED060AD0ED071A70EE600A58
:1019B000C0ED081AC0ED070A90ED000A20EE201ACB
:1019C00080ED091A90ED0A0A90ED012A02EE200A34
:1019D00070EEE10A80ED0A0AD0ED021A60EEA11A5B
:1019E000C0ED0B1AD0ED030AB4EEE00AF1EE10FAE6
:1019F00006DCF1EE600AB4EEE00AF1EE10FA01D274
:101A0000B0EE600A80ED0A0A31EE000A30EE210ADB
:101A100080ED0C0AD0ED040AB4EEE00AF1EE10FA03
:101A200006DCF1EE600AB4EEE00AF1EE10FA01D243
:101A3000B0EE600A80ED0C0A7047704730B5144B69
:101A40001C68656945F0400565611B68DC6844F009
:101A50001004DC600F4B1C68256825F0010525602B
:101A60001C682568ED07F7D11D680B4CAC601C683D
:101A7000E06018680161186842601868016841F404
:101A8000802101601868016841F00101016030BDEA
:101A9000440100208C010020041001407047000028
:101AA00000B589B0002007900690029003900820AE
:101AB0000490080A8DF81A0040F2FF1200928DF887
:101AC0001B10012306AA69460248FEF741FD09B032
:101AD00000BD00001C010020FFF70ABB30B593B029
:101AE00030216846FEF737FC14210CA8FEF733FCC2
:101AF0001E480025016841F080510160006800F037
:101B0000805011901A48016841F4804101600068DA
:101B1000022400F480401190012000900004019004
:101B20008001CDE90640192008904FF4A870CDE956
:101B3000090404200B906846FFF760FC08B172B6F8
:101B4000FEE70CA90F2081E831004FF4A0500F9060
:101B50004FF48050109005210CA8FFF763FB00287C
:101B600001D072B6FEE713B030BD0000403802402D
:101B7000007000400248016841F470010160704744
:101B800088ED00E070B5044600680169E26821F460
:101B90004051114301612169A068E269084361690C
:101BA000114308432168CA6849F20C639A4302430F
:101BB000CA6020684169A26921F440711143416102
:101BC00031492068884202D03049884202D1FFF76B
:101BD000D3FB01E0FFF7C0FBE26900231921642574
:101BE0003226B2F5004F626828D0A0FB0101930FA6
:101BF0009200FEF739FB0146B0FBF5F06FF01802DA
:101C0000504301EB800006EB0010B0FBF5F000F054
:101C1000F002B1FBF5F002EB0012B1FBF5F06FF052
:101C20001803584301EB800006EB0010B0FBF5F001
:101C300000F00F0021681044886070BDA0FB010116
:101C400092185B41FEF710FB0146B0FBF5F0020174
:101C5000B1FBF5F06FF01803584301EB800006EB81
:101C6000C000B0FBF5F000F0F80002EB4002B1FB61
:101C7000F5F0584301EB800006EBC000B0FBF5F037
:101C800000F00700D6E700000010014000140140FA
:101C9000264818B400680168890604D501684068C0
:101CA000009018BC704722490968C906F9D5016837
:101CB0004068204A0090106801684FF024030C032C
:101CC0001D49046824F00104046016D410684468B7
:101CD000C4F12404A4B20C8043601068016841F48C
:101CE000002101601068016841F001010160122CBF
:101CF000D7D1124901F1160015E014686068C0F1EF
:101D0000240080B2088063600D498B6A23F40023AD
:101D10008B6211680A6842F001020A601228C0D181
:101D2000064901F13A0018BC00F0B4B844010020A3
:101D3000001001408C01002028000020BC00002081
:101D400000600240FEE70907090E002804DB00F1ED
:101D5000E02080F80014704700F00F0000F1E02050
:101D600080F8141D7047000000B58BB000200121E1
:101D7000CDE9060108910090019002900390059032
:101D8000049069460548FEF741FC0448FEF732FF1F
:101D900002210248FEF7CAFB0BB000BD1C01002067
:101DA00000487047BC0000202DED048BFFF7A8F918
:101DB000FFF794FEFFF7B4FDFFF79CFDFFF778FDFA
:101DC000FFF7CCFDFFF7D0FFFEF778FB00F05AF8E5
:101DD000FFF7E6FF214C224D9FED228ADFED228A9C
:101DE0009FED229A224FDFF88C804FF42576A06079
:101DF000A0688C21B0F9000090FBF6F0484300EE9B
:101E0000100AB8EEC00A84ED000AA88800EE900A15
:101E10001748F8EE600A80EE881AF0EE490A51EE93
:101E2000280AC4ED010AFFF7BBFDB5F9060000EE74
:101E3000100A1048F8EEC00A97ED0C0AFFF7B0FD43
:101E400098ED0C0ABDEEC00A10EE100A01B20A4865
:101E5000FFF726FE2820FFF73BF8C9E72C000020FB
:101E60004800002000F8FF450000B4430000344360
:101E700088000020540000201C01002080EC050A8E
:101E80007047000002492422A1F12400FFF7D6BDCB
:101E9000F6000020F0B5002855D0002953D0027874
:101EA000437842EA0322C2F30A020A804378847824
:101EB000DB0843EA4413C3F30A034B808478C578F4
:101EC000A40944EA8504057944EA8524C4F30A0494
:101ED0008C80057946796D0845EAC615C5F30A0573
:101EE000CD804679C6F301168E724679B609CE7258
:101EF0008679C77946EA07268E81067A477A46EAC6
:101F00000726CE81867AC77A46EA07260E82067BA6
:101F10008E74467BCE74867BC77B46EA07268E820C
:101F2000067C407CA2F580620A80A3F580634B802A
:101F3000A4F5806446EA00208C80A5F58065CD80FC
:101F4000A0F580600881F0BD4FF04070E1EE100A0E
:101F50007047000610160006101600000000000072
:101F60000000010203040607080900000000010246
:101F700003040000941F0008000000204800000037
:101F8000C4010008DC1F0008480000200808000009
:101F9000E0010008A8610000A86100000000000046
:101FA00040010000140000000A00000002000000D0
:101FB000020000000000000000000000000000001F
:101FC0000000000000000000000000000100000010
:0C1FD00010000000000000000024F400DD
:040000050800018965
:00000001FF
